{
  "contractName": "PresaleToken",
  "abi": [
    {
      "constant": true,
      "inputs": [],
      "name": "currentPhase",
      "outputs": [
        {
          "name": "",
          "type": "uint8"
        }
      ],
      "payable": false,
      "stateMutability": "view",
      "type": "function"
    },
    {
      "constant": true,
      "inputs": [],
      "name": "name",
      "outputs": [
        {
          "name": "",
          "type": "string"
        }
      ],
      "payable": false,
      "stateMutability": "view",
      "type": "function"
    },
    {
      "constant": true,
      "inputs": [],
      "name": "totalSupply",
      "outputs": [
        {
          "name": "",
          "type": "uint256"
        }
      ],
      "payable": false,
      "stateMutability": "view",
      "type": "function"
    },
    {
      "constant": false,
      "inputs": [
        {
          "name": "_nextPhase",
          "type": "uint8"
        }
      ],
      "name": "setPresalePhase",
      "outputs": [],
      "payable": false,
      "stateMutability": "nonpayable",
      "type": "function"
    },
    {
      "constant": true,
      "inputs": [],
      "name": "TOKEN_SUPPLY_LIMIT",
      "outputs": [
        {
          "name": "",
          "type": "uint256"
        }
      ],
      "payable": false,
      "stateMutability": "view",
      "type": "function"
    },
    {
      "constant": true,
      "inputs": [],
      "name": "tokenManager",
      "outputs": [
        {
          "name": "",
          "type": "address"
        }
      ],
      "payable": false,
      "stateMutability": "view",
      "type": "function"
    },
    {
      "constant": true,
      "inputs": [],
      "name": "decimals",
      "outputs": [
        {
          "name": "",
          "type": "uint256"
        }
      ],
      "payable": false,
      "stateMutability": "view",
      "type": "function"
    },
    {
      "constant": true,
      "inputs": [],
      "name": "crowdsaleManager",
      "outputs": [
        {
          "name": "",
          "type": "address"
        }
      ],
      "payable": false,
      "stateMutability": "view",
      "type": "function"
    },
    {
      "constant": false,
      "inputs": [
        {
          "name": "_mgr",
          "type": "address"
        }
      ],
      "name": "setCrowdsaleManager",
      "outputs": [],
      "payable": false,
      "stateMutability": "nonpayable",
      "type": "function"
    },
    {
      "constant": true,
      "inputs": [
        {
          "name": "_owner",
          "type": "address"
        }
      ],
      "name": "balanceOf",
      "outputs": [
        {
          "name": "",
          "type": "uint256"
        }
      ],
      "payable": false,
      "stateMutability": "view",
      "type": "function"
    },
    {
      "constant": false,
      "inputs": [],
      "name": "withdrawEther",
      "outputs": [],
      "payable": false,
      "stateMutability": "nonpayable",
      "type": "function"
    },
    {
      "constant": true,
      "inputs": [],
      "name": "PRICE",
      "outputs": [
        {
          "name": "",
          "type": "uint256"
        }
      ],
      "payable": false,
      "stateMutability": "view",
      "type": "function"
    },
    {
      "constant": true,
      "inputs": [],
      "name": "symbol",
      "outputs": [
        {
          "name": "",
          "type": "string"
        }
      ],
      "payable": false,
      "stateMutability": "view",
      "type": "function"
    },
    {
      "constant": false,
      "inputs": [
        {
          "name": "_owner",
          "type": "address"
        }
      ],
      "name": "burnTokens",
      "outputs": [],
      "payable": false,
      "stateMutability": "nonpayable",
      "type": "function"
    },
    {
      "constant": true,
      "inputs": [],
      "name": "escrow",
      "outputs": [
        {
          "name": "",
          "type": "address"
        }
      ],
      "payable": false,
      "stateMutability": "view",
      "type": "function"
    },
    {
      "constant": false,
      "inputs": [
        {
          "name": "_buyer",
          "type": "address"
        }
      ],
      "name": "buyTokens",
      "outputs": [],
      "payable": true,
      "stateMutability": "payable",
      "type": "function"
    },
    {
      "inputs": [
        {
          "name": "_tokenManager",
          "type": "address"
        },
        {
          "name": "_escrow",
          "type": "address"
        }
      ],
      "payable": false,
      "stateMutability": "nonpayable",
      "type": "constructor"
    },
    {
      "payable": true,
      "stateMutability": "payable",
      "type": "fallback"
    },
    {
      "anonymous": false,
      "inputs": [
        {
          "indexed": true,
          "name": "owner",
          "type": "address"
        },
        {
          "indexed": false,
          "name": "value",
          "type": "uint256"
        }
      ],
      "name": "LogBuy",
      "type": "event"
    },
    {
      "anonymous": false,
      "inputs": [
        {
          "indexed": true,
          "name": "owner",
          "type": "address"
        },
        {
          "indexed": false,
          "name": "value",
          "type": "uint256"
        }
      ],
      "name": "LogBurn",
      "type": "event"
    },
    {
      "anonymous": false,
      "inputs": [
        {
          "indexed": false,
          "name": "newPhase",
          "type": "uint8"
        }
      ],
      "name": "LogPhaseSwitch",
      "type": "event"
    }
  ],
  "bytecode": "0x60606040526000805460ff19168155600155341561001c57600080fd5b6040516040806108d7833981016040528080519190602001805160028054600160a060020a03958616600160a060020a0319918216179091556003805492909516911617909255506108629050806100756000396000f300606060405236156100e35763ffffffff7c0100000000000000000000000000000000000000000000000000000000600035041663055ad42e81146100ee57806306fdde031461012557806318160ddd146101af5780631ca2e94a146101d4578063292005a2146101ed5780632a709b1414610200578063313ce5671461022f578063341176d6146102425780634defd1bf1461025557806370a08231146102745780637362377b146102935780638d859f3e146102a657806395d89b41146102b9578063b237f7d4146102cc578063e2fdcc17146102eb578063ec8ac4d8146102fe575b6100ec3361030e565b005b34156100f957600080fd5b6101016103be565b6040518082600481111561011157fe5b60ff16815260200191505060405180910390f35b341561013057600080fd5b6101386103c7565b60405160208082528190810183818151815260200191508051906020019080838360005b8381101561017457808201518382015260200161015c565b50505050905090810190601f1680156101a15780820380516001836020036101000a031916815260200191505b509250505060405180910390f35b34156101ba57600080fd5b6101c26103fe565b60405190815260200160405180910390f35b34156101df57600080fd5b6100ec60ff60043516610404565b34156101f857600080fd5b6101c26105c2565b341561020b57600080fd5b6102136105d2565b604051600160a060020a03909116815260200160405180910390f35b341561023a57600080fd5b6101c26105e1565b341561024d57600080fd5b6102136105e6565b341561026057600080fd5b6100ec600160a060020a03600435166105f5565b341561027f57600080fd5b6101c2600160a060020a036004351661065d565b341561029e57600080fd5b6100ec610678565b34156102b157600080fd5b6101c26106e1565b34156102c457600080fd5b6101386106e7565b34156102d757600080fd5b6100ec600160a060020a036004351661071e565b34156102f657600080fd5b610213610827565b6100ec600160a060020a03600435165b6000600160005460ff16600481111561032357fe5b1461032d57600080fd5b6000341161033a57600080fd5b506001543461186a02906b01027e72f1f1281308800000908201111561035f57600080fd5b600160a060020a0382166000818152600560205260409081902080548401905560018054840190557f4f79409f494e81c38036d80aa8a6507c2cb08d90bfb2fead5519447646b3497e9083905190815260200160405180910390a25050565b60005460ff1681565b60408051908101604052601581527f566563746176692050726573616c6520546f6b656e0000000000000000000000602082015281565b60015481565b60025460009033600160a060020a0390811691161461042257600080fd5b6000805460ff16600481111561043457fe5b14801561044c5750600182600481111561044a57fe5b145b8061047d5750600160005460ff16600481111561046557fe5b14801561047d5750600282600481111561047b57fe5b145b806104df5750600160005460ff16600481111561049657fe5b14806104b25750600260005460ff1660048111156104b057fe5b145b80156104c9575060038260048111156104c757fe5b145b80156104df5750600454600160a060020a031615155b806105105750600260005460ff1660048111156104f857fe5b1480156105105750600182600481111561050e57fe5b145b8061054d5750600360005460ff16600481111561052957fe5b1480156105415750600482600481111561053f57fe5b145b801561054d5750600154155b905080151561055b57600080fd5b6000805483919060ff1916600183600481111561057457fe5b02179055507f8d9efa3fab1bd6476defa44f520afbf9337886a4947021fd7f2775e0efaf457182604051808260048111156105ab57fe5b60ff16815260200191505060405180910390a15050565b6b01027e72f1f128130880000081565b600254600160a060020a031681565b601281565b600454600160a060020a031681565b60025433600160a060020a0390811691161461061057600080fd5b600360005460ff16600481111561062357fe5b141561062e57600080fd5b6004805473ffffffffffffffffffffffffffffffffffffffff1916600160a060020a0392909216919091179055565b600160a060020a031660009081526005602052604090205490565b60025433600160a060020a0390811691161461069357600080fd5b600030600160a060020a03163111156106df57600354600160a060020a039081169030163180156108fc0290604051600060405180830381858888f1935050505015156106df57600080fd5b565b61186a81565b60408051908101604052600381527f5650540000000000000000000000000000000000000000000000000000000000602082015281565b60045460009033600160a060020a0390811691161461073c57600080fd5b600360005460ff16600481111561074f57fe5b1461075957600080fd5b50600160a060020a03811660009081526005602052604081205490811161077f57600080fd5b600160a060020a038216600081815260056020526040808220919091556001805484900390557f38d762ef507761291a578e921acfe29c1af31a7331ea03e391cf16cfc4d4f5819083905190815260200160405180910390a26001541515610823576000805460ff191660049081179091557f8d9efa3fab1bd6476defa44f520afbf9337886a4947021fd7f2775e0efaf457190604051808260048111156105ab57fe5b5050565b600354600160a060020a0316815600a165627a7a7230582042b6447ff699da4d57c6671b447b056eac144e171c4864968f14a214202ecb640029",
  "source": "pragma solidity ^0.4.17;\n\n\n// ERC20 token interface is implemented only partially.\n// Token transfer is prohibited due to spec (see PRESALE-SPEC.md),\n// hence some functions are left undefined:\n//  - transfer, transferFrom,\n//  - approve, allowance.\n\ncontract PresaleToken {\n\n    /// @dev Constructor\n    /// @param _tokenManager Token manager address.\n    function PresaleToken(address _tokenManager, address _escrow) public {\n        tokenManager = _tokenManager;\n        escrow = _escrow;\n    }\n\n\n    /*/\n     *  Constants\n    /*/\n\n    string public constant name = \"Vectavi Presale Token\";\n    string public constant symbol = \"VPT\";\n    uint   public constant decimals = 18;\n\n    uint public constant PRICE = 6250; // 5000 VPT/Ether @ 25% discount ==> 1.25 * 5000 = 6250 VPT/ETH\n\n    // price: 1 eth == 6250 presale tokens (VPT)\n    // assume ETH price is USD $300 ($289 on 9/12/2017)\n    // Cap is USD $15,000,000\n    // Cap is 15,000,000 USD/(300 USD/ETH) = 50,000 ETH\n    // Cap is (6250 VPT/ETH) * (50,000 ETH) = 312,500,000 VPT Cap in ether [external display] units\n    // \n    // VPT Cap above is in ether [external display] units\n    // internally, value is passed in units of wei, so convert Cap to wei units\n    // \n    uint public constant TOKEN_SUPPLY_LIMIT = 312500000 * (1 ether / 1 wei);\n\n\n    /*/\n     *  Token state\n    /*/\n\n    enum Phase {\n        Created,\n        Running,\n        Paused,\n        Migrating,\n        Migrated\n    }\n\n    Phase public currentPhase = Phase.Created;\n    uint public totalSupply = 0; // amount of tokens already sold\n\n    // Token manager has exclusive priveleges to call administrative\n    // functions on this contract.\n    address public tokenManager;\n\n    // Gathered funds can be withdrawn only to escrow's address.\n    address public escrow;\n\n    // Crowdsale manager has exclusive priveleges to burn presale tokens.\n    address public crowdsaleManager;\n\n    mapping (address => uint256) private balance;\n\n\n    modifier onlyTokenManager()     { require(msg.sender == tokenManager); _; }\n    modifier onlyCrowdsaleManager() { require(msg.sender == crowdsaleManager); _; }\n\n\n    /*/\n     *  Events\n    /*/\n\n    event LogBuy(address indexed owner, uint value);\n    event LogBurn(address indexed owner, uint value);\n    event LogPhaseSwitch(Phase newPhase);\n\n\n    /*/\n     *  Public functions\n    /*/\n\n    function() public payable {\n        buyTokens(msg.sender);\n    }\n\n    /// @dev Lets buy you some tokens.\n    function buyTokens(address _buyer) public payable {\n        // Available only if presale is running.\n        require(currentPhase == Phase.Running);\n\n        require(msg.value > 0);\n        uint newTokens = msg.value * PRICE;\n        require(totalSupply + newTokens <= TOKEN_SUPPLY_LIMIT);\n        balance[_buyer] += newTokens;\n        totalSupply += newTokens;\n        LogBuy(_buyer, newTokens);\n    }\n\n\n    /// @dev Returns number of tokens owned by given address.\n    /// @param _owner Address of token owner.\n    function burnTokens(address _owner) public\n        onlyCrowdsaleManager\n    {\n        // Available only during migration phase\n        require(currentPhase == Phase.Migrating);\n\n        uint tokens = balance[_owner];\n        require(tokens > 0);\n        balance[_owner] = 0;\n        totalSupply -= tokens;\n        LogBurn(_owner, tokens);\n\n        // Automatically switch phase when migration is done.\n        if(totalSupply == 0) {\n            currentPhase = Phase.Migrated;\n            LogPhaseSwitch(Phase.Migrated);\n        }\n    }\n\n\n    /// @dev Returns number of tokens owned by given address.\n    /// @param _owner Address of token owner.\n    function balanceOf(address _owner) public constant returns (uint256) {\n        return balance[_owner];\n    }\n\n\n    /*/\n     *  Administrative functions\n    /*/\n\n    function setPresalePhase(Phase _nextPhase) public\n        onlyTokenManager\n    {\n        bool canSwitchPhase\n            =  (currentPhase == Phase.Created && _nextPhase == Phase.Running)\n            || (currentPhase == Phase.Running && _nextPhase == Phase.Paused)\n                // switch to migration phase only if crowdsale manager is set\n            || ((currentPhase == Phase.Running || currentPhase == Phase.Paused)\n                && _nextPhase == Phase.Migrating\n                && crowdsaleManager != 0x0)\n            || (currentPhase == Phase.Paused && _nextPhase == Phase.Running)\n                // switch to migrated only if everyting is migrated\n            || (currentPhase == Phase.Migrating && _nextPhase == Phase.Migrated\n                && totalSupply == 0);\n\n        require(canSwitchPhase);\n        currentPhase = _nextPhase;\n        LogPhaseSwitch(_nextPhase);\n    }\n\n\n    function withdrawEther() public\n        onlyTokenManager\n    {\n        // Available at any phase.\n        if(this.balance > 0) {\n            require(escrow.send(this.balance));\n        }\n    }\n\n\n    function setCrowdsaleManager(address _mgr) public\n        onlyTokenManager\n    {\n        // You can't change crowdsale contract when migration is in progress.\n        require(currentPhase != Phase.Migrating);\n       crowdsaleManager = _mgr;\n    }\n}\n",
  "sourcePath": "/home/tavit/Work/dapp/vpt/contracts/PresaleToken.sol",
  "schemaVersion": "1.0.0",
  "updatedAt": "2017-12-08T17:04:54.708Z"
}