{
  "contractName": "TokenManager",
  "abi": [
    {
      "constant": true,
      "inputs": [
        {
          "name": "",
          "type": "uint256"
        }
      ],
      "name": "owners",
      "outputs": [
        {
          "name": "",
          "type": "address"
        }
      ],
      "payable": false,
      "stateMutability": "view",
      "type": "function"
    },
    {
      "constant": false,
      "inputs": [
        {
          "name": "owner",
          "type": "address"
        }
      ],
      "name": "removeOwner",
      "outputs": [],
      "payable": false,
      "stateMutability": "nonpayable",
      "type": "function"
    },
    {
      "constant": false,
      "inputs": [
        {
          "name": "transactionId",
          "type": "uint256"
        }
      ],
      "name": "revokeConfirmation",
      "outputs": [],
      "payable": false,
      "stateMutability": "nonpayable",
      "type": "function"
    },
    {
      "constant": true,
      "inputs": [
        {
          "name": "",
          "type": "address"
        }
      ],
      "name": "isOwner",
      "outputs": [
        {
          "name": "",
          "type": "bool"
        }
      ],
      "payable": false,
      "stateMutability": "view",
      "type": "function"
    },
    {
      "constant": true,
      "inputs": [
        {
          "name": "",
          "type": "uint256"
        },
        {
          "name": "",
          "type": "address"
        }
      ],
      "name": "confirmations",
      "outputs": [
        {
          "name": "",
          "type": "bool"
        }
      ],
      "payable": false,
      "stateMutability": "view",
      "type": "function"
    },
    {
      "constant": false,
      "inputs": [
        {
          "name": "_token",
          "type": "address"
        }
      ],
      "name": "tokenWithdrawEther",
      "outputs": [],
      "payable": false,
      "stateMutability": "nonpayable",
      "type": "function"
    },
    {
      "constant": true,
      "inputs": [
        {
          "name": "pending",
          "type": "bool"
        },
        {
          "name": "executed",
          "type": "bool"
        }
      ],
      "name": "getTransactionCount",
      "outputs": [
        {
          "name": "count",
          "type": "uint256"
        }
      ],
      "payable": false,
      "stateMutability": "view",
      "type": "function"
    },
    {
      "constant": false,
      "inputs": [
        {
          "name": "_token",
          "type": "address"
        },
        {
          "name": "_mgr",
          "type": "address"
        }
      ],
      "name": "tokenSetCrowdsaleManager",
      "outputs": [],
      "payable": false,
      "stateMutability": "nonpayable",
      "type": "function"
    },
    {
      "constant": false,
      "inputs": [
        {
          "name": "owner",
          "type": "address"
        }
      ],
      "name": "addOwner",
      "outputs": [],
      "payable": false,
      "stateMutability": "nonpayable",
      "type": "function"
    },
    {
      "constant": true,
      "inputs": [
        {
          "name": "transactionId",
          "type": "uint256"
        }
      ],
      "name": "isConfirmed",
      "outputs": [
        {
          "name": "",
          "type": "bool"
        }
      ],
      "payable": false,
      "stateMutability": "view",
      "type": "function"
    },
    {
      "constant": true,
      "inputs": [
        {
          "name": "transactionId",
          "type": "uint256"
        }
      ],
      "name": "getConfirmationCount",
      "outputs": [
        {
          "name": "count",
          "type": "uint256"
        }
      ],
      "payable": false,
      "stateMutability": "view",
      "type": "function"
    },
    {
      "constant": true,
      "inputs": [
        {
          "name": "",
          "type": "uint256"
        }
      ],
      "name": "transactions",
      "outputs": [
        {
          "name": "destination",
          "type": "address"
        },
        {
          "name": "value",
          "type": "uint256"
        },
        {
          "name": "data",
          "type": "bytes"
        },
        {
          "name": "executed",
          "type": "bool"
        }
      ],
      "payable": false,
      "stateMutability": "view",
      "type": "function"
    },
    {
      "constant": true,
      "inputs": [],
      "name": "getOwners",
      "outputs": [
        {
          "name": "",
          "type": "address[]"
        }
      ],
      "payable": false,
      "stateMutability": "view",
      "type": "function"
    },
    {
      "constant": true,
      "inputs": [
        {
          "name": "from",
          "type": "uint256"
        },
        {
          "name": "to",
          "type": "uint256"
        },
        {
          "name": "pending",
          "type": "bool"
        },
        {
          "name": "executed",
          "type": "bool"
        }
      ],
      "name": "getTransactionIds",
      "outputs": [
        {
          "name": "_transactionIds",
          "type": "uint256[]"
        }
      ],
      "payable": false,
      "stateMutability": "view",
      "type": "function"
    },
    {
      "constant": true,
      "inputs": [
        {
          "name": "transactionId",
          "type": "uint256"
        }
      ],
      "name": "getConfirmations",
      "outputs": [
        {
          "name": "_confirmations",
          "type": "address[]"
        }
      ],
      "payable": false,
      "stateMutability": "view",
      "type": "function"
    },
    {
      "constant": true,
      "inputs": [],
      "name": "transactionCount",
      "outputs": [
        {
          "name": "",
          "type": "uint256"
        }
      ],
      "payable": false,
      "stateMutability": "view",
      "type": "function"
    },
    {
      "constant": false,
      "inputs": [
        {
          "name": "_required",
          "type": "uint256"
        }
      ],
      "name": "changeRequirement",
      "outputs": [],
      "payable": false,
      "stateMutability": "nonpayable",
      "type": "function"
    },
    {
      "constant": false,
      "inputs": [
        {
          "name": "transactionId",
          "type": "uint256"
        }
      ],
      "name": "confirmTransaction",
      "outputs": [],
      "payable": false,
      "stateMutability": "nonpayable",
      "type": "function"
    },
    {
      "constant": false,
      "inputs": [
        {
          "name": "destination",
          "type": "address"
        },
        {
          "name": "value",
          "type": "uint256"
        },
        {
          "name": "data",
          "type": "bytes"
        }
      ],
      "name": "submitTransaction",
      "outputs": [
        {
          "name": "transactionId",
          "type": "uint256"
        }
      ],
      "payable": false,
      "stateMutability": "nonpayable",
      "type": "function"
    },
    {
      "constant": true,
      "inputs": [],
      "name": "MAX_OWNER_COUNT",
      "outputs": [
        {
          "name": "",
          "type": "uint256"
        }
      ],
      "payable": false,
      "stateMutability": "view",
      "type": "function"
    },
    {
      "constant": true,
      "inputs": [],
      "name": "required",
      "outputs": [
        {
          "name": "",
          "type": "uint256"
        }
      ],
      "payable": false,
      "stateMutability": "view",
      "type": "function"
    },
    {
      "constant": false,
      "inputs": [
        {
          "name": "owner",
          "type": "address"
        },
        {
          "name": "newOwner",
          "type": "address"
        }
      ],
      "name": "replaceOwner",
      "outputs": [],
      "payable": false,
      "stateMutability": "nonpayable",
      "type": "function"
    },
    {
      "constant": false,
      "inputs": [
        {
          "name": "transactionId",
          "type": "uint256"
        }
      ],
      "name": "executeTransaction",
      "outputs": [],
      "payable": false,
      "stateMutability": "nonpayable",
      "type": "function"
    },
    {
      "constant": false,
      "inputs": [
        {
          "name": "_token",
          "type": "address"
        },
        {
          "name": "_nextPhase",
          "type": "uint8"
        }
      ],
      "name": "tokenSetPresalePhase",
      "outputs": [],
      "payable": false,
      "stateMutability": "nonpayable",
      "type": "function"
    },
    {
      "inputs": [
        {
          "name": "_owners",
          "type": "address[]"
        },
        {
          "name": "_required",
          "type": "uint256"
        }
      ],
      "payable": false,
      "stateMutability": "nonpayable",
      "type": "constructor"
    },
    {
      "payable": true,
      "stateMutability": "payable",
      "type": "fallback"
    },
    {
      "anonymous": false,
      "inputs": [
        {
          "indexed": true,
          "name": "_phase",
          "type": "uint8"
        },
        {
          "indexed": false,
          "name": "_txId",
          "type": "uint256"
        }
      ],
      "name": "LogTokenSetPresalePhase",
      "type": "event"
    },
    {
      "anonymous": false,
      "inputs": [
        {
          "indexed": false,
          "name": "_txId",
          "type": "uint256"
        }
      ],
      "name": "LogTokenWithdrawEther",
      "type": "event"
    },
    {
      "anonymous": false,
      "inputs": [
        {
          "indexed": true,
          "name": "_address",
          "type": "address"
        },
        {
          "indexed": false,
          "name": "_txId",
          "type": "uint256"
        }
      ],
      "name": "LogTokenSetCrowdsaleManager",
      "type": "event"
    },
    {
      "anonymous": false,
      "inputs": [
        {
          "indexed": true,
          "name": "sender",
          "type": "address"
        },
        {
          "indexed": true,
          "name": "transactionId",
          "type": "uint256"
        }
      ],
      "name": "Confirmation",
      "type": "event"
    },
    {
      "anonymous": false,
      "inputs": [
        {
          "indexed": true,
          "name": "sender",
          "type": "address"
        },
        {
          "indexed": true,
          "name": "transactionId",
          "type": "uint256"
        }
      ],
      "name": "Revocation",
      "type": "event"
    },
    {
      "anonymous": false,
      "inputs": [
        {
          "indexed": true,
          "name": "transactionId",
          "type": "uint256"
        }
      ],
      "name": "Submission",
      "type": "event"
    },
    {
      "anonymous": false,
      "inputs": [
        {
          "indexed": true,
          "name": "transactionId",
          "type": "uint256"
        }
      ],
      "name": "Execution",
      "type": "event"
    },
    {
      "anonymous": false,
      "inputs": [
        {
          "indexed": true,
          "name": "transactionId",
          "type": "uint256"
        }
      ],
      "name": "ExecutionFailure",
      "type": "event"
    },
    {
      "anonymous": false,
      "inputs": [
        {
          "indexed": true,
          "name": "sender",
          "type": "address"
        },
        {
          "indexed": false,
          "name": "value",
          "type": "uint256"
        }
      ],
      "name": "Deposit",
      "type": "event"
    },
    {
      "anonymous": false,
      "inputs": [
        {
          "indexed": true,
          "name": "owner",
          "type": "address"
        }
      ],
      "name": "OwnerAddition",
      "type": "event"
    },
    {
      "anonymous": false,
      "inputs": [
        {
          "indexed": true,
          "name": "owner",
          "type": "address"
        }
      ],
      "name": "OwnerRemoval",
      "type": "event"
    },
    {
      "anonymous": false,
      "inputs": [
        {
          "indexed": false,
          "name": "required",
          "type": "uint256"
        }
      ],
      "name": "RequirementChange",
      "type": "event"
    }
  ],
  "bytecode": "0x606060405234156200001057600080fd5b6040516200196f3803806200196f83398101604052808051820191906020018051915082905081600082518260328211806200004b57508181115b8062000055575080155b806200005f575081155b156200006a57600080fd5b600092505b84518310156200013757600260008685815181106200008a57fe5b90602001906020020151600160a060020a0316815260208101919091526040016000205460ff1680620000da5750848381518110620000c557fe5b90602001906020020151600160a060020a0316155b15620000e557600080fd5b600160026000878681518110620000f857fe5b90602001906020020151600160a060020a031681526020810191909152604001600020805460ff1916911515919091179055600192909201916200006f565b60038580516200014c92916020019062000160565b50505060049190915550620001f692505050565b828054828255906000526020600020908101928215620001ba579160200282015b82811115620001ba5782518254600160a060020a031916600160a060020a03919091161782556020929092019160019091019062000181565b50620001c8929150620001cc565b5090565b620001f391905b80821115620001c8578054600160a060020a0319168155600101620001d3565b90565b61176980620002066000396000f3006060604052361561013b5763ffffffff7c0100000000000000000000000000000000000000000000000000000000600035041663025e7c278114610184578063173825d9146101b657806320ea8d86146101d55780632f54bf6e146101eb5780633411c81c1461021e57806342cdfe3714610240578063547415251461025f5780635ce7c7e01461028e5780637065cb48146102b3578063784547a7146102d25780638b51d13f146102e85780639ace38c2146102fe578063a0e67e2b146103bd578063a8abe69a14610423578063b5dc40c314610446578063b77bf6001461045c578063ba51a6df1461046f578063c01a8c8414610485578063c64274741461049b578063d74f8edd14610500578063dc8452cd14610513578063e20056e614610526578063ee22610b1461054b578063fd610bfa14610561575b60003411156101825733600160a060020a03167fe1fffcc4923d04b559f4d29a8bfc6cda04eb5b0d3c460751c2402c5c5cc9109c3460405190815260200160405180910390a25b005b341561018f57600080fd5b61019a600435610586565b604051600160a060020a03909116815260200160405180910390f35b34156101c157600080fd5b610182600160a060020a03600435166105ae565b34156101e057600080fd5b610182600435610743565b34156101f657600080fd5b61020a600160a060020a0360043516610821565b604051901515815260200160405180910390f35b341561022957600080fd5b61020a600435600160a060020a0360243516610836565b341561024b57600080fd5b610182600160a060020a0360043516610856565b341561026a57600080fd5b61027c60043515156024351515610906565b60405190815260200160405180910390f35b341561029957600080fd5b610182600160a060020a0360043581169060243516610972565b34156102be57600080fd5b610182600160a060020a0360043516610a3d565b34156102dd57600080fd5b61020a600435610b71565b34156102f357600080fd5b61027c600435610bf5565b341561030957600080fd5b610314600435610c64565b604051600160a060020a03851681526020810184905281151560608201526080604082018181528454600260001961010060018416150201909116049183018290529060a0830190859080156103ab5780601f10610380576101008083540402835291602001916103ab565b820191906000526020600020905b81548152906001019060200180831161038e57829003601f168201915b50509550505050505060405180910390f35b34156103c857600080fd5b6103d0610c98565b60405160208082528190810183818151815260200191508051906020019060200280838360005b8381101561040f5780820151838201526020016103f7565b505050509050019250505060405180910390f35b341561042e57600080fd5b6103d060043560243560443515156064351515610d01565b341561045157600080fd5b6103d0600435610e29565b341561046757600080fd5b61027c610f8d565b341561047a57600080fd5b610182600435610f93565b341561049057600080fd5b61018260043561101e565b34156104a657600080fd5b61027c60048035600160a060020a03169060248035919060649060443590810190830135806020601f8201819004810201604051908101604052818152929190602084018383808284375094965061110c95505050505050565b341561050b57600080fd5b61027c61112b565b341561051e57600080fd5b61027c611130565b341561053157600080fd5b610182600160a060020a0360043581169060243516611136565b341561055657600080fd5b6101826004356112e4565b341561056c57600080fd5b610182600160a060020a036004351660ff60243516611440565b600380548290811061059457fe5b600091825260209091200154600160a060020a0316905081565b600030600160a060020a031633600160a060020a03161415156105d057600080fd5b600160a060020a038216600090815260026020526040902054829060ff1615156105f957600080fd5b600160a060020a0383166000908152600260205260408120805460ff1916905591505b600354600019018210156106dc5782600160a060020a031660038381548110151561064357fe5b600091825260209091200154600160a060020a031614156106d15760038054600019810190811061067057fe5b60009182526020909120015460038054600160a060020a03909216918490811061069657fe5b6000918252602090912001805473ffffffffffffffffffffffffffffffffffffffff1916600160a060020a03929092169190911790556106dc565b60019091019061061c565b6003805460001901906106ef908261166f565b5060035460045411156107085760035461070890610f93565b82600160a060020a03167f8001553a916ef2f495d26a907cc54d96ed840d7bda71e73194bf5a9df7a76b9060405160405180910390a2505050565b33600160a060020a03811660009081526002602052604090205460ff16151561076b57600080fd5b600082815260016020908152604080832033600160a060020a038116855292529091205483919060ff1615156107a057600080fd5b600084815260208190526040902060030154849060ff16156107c157600080fd5b6000858152600160209081526040808320600160a060020a033316808552925291829020805460ff1916905586917ff6a317157440607f36269043eb55f1287a5a19ba2216afeab88cd46cbcfb88e9905160405180910390a35050505050565b60026020526000908152604090205460ff1681565b600160209081526000928352604080842090915290825290205460ff1681565b61085e611693565b33600160a060020a03811660009081526002602052604081205490919060ff16151561088957600080fd5b60408051908101604052600481527f7362377b00000000000000000000000000000000000000000000000000000000602082015292506108cb8460008561110c565b91507f75ad671a05207fb6b68500258e05666b0fbc80ce43b3fdb411c8f2ca7e1a24508260405190815260200160405180910390a150505050565b6000805b60055481101561096b57838015610933575060008181526020819052604090206003015460ff16155b806109575750828015610957575060008181526020819052604090206003015460ff165b15610963576001820191505b60010161090a565b5092915050565b61097a611693565b33600160a060020a03811660009081526002602052604081205490919060ff1615156109a557600080fd5b606060405190810160405280602481526020017f4defd1bf000000000000000000000000000000000000000000000000000000008152602001600081525092508360248401526109f78560008561110c565b915083600160a060020a03167f96a8f2c6ea37e271e432afbeae769dec8c1ee84a07ab2810a7055e84aff190498360405190815260200160405180910390a25050505050565b30600160a060020a031633600160a060020a0316141515610a5d57600080fd5b600160a060020a038116600090815260026020526040902054819060ff1615610a8557600080fd5b81600160a060020a0381161515610a9b57600080fd5b6003805490506001016004546032821180610ab557508181115b80610abe575080155b80610ac7575081155b15610ad157600080fd5b600160a060020a0385166000908152600260205260409020805460ff191660019081179091556003805490918101610b09838261166f565b506000918252602090912001805473ffffffffffffffffffffffffffffffffffffffff1916600160a060020a0387169081179091557ff39e6e1eb0edcf53c221607b54b00cd28f3196fed0a24994dc308b8f611b682d60405160405180910390a25050505050565b600080805b600354811015610bee5760008481526001602052604081206003805491929184908110610b9f57fe5b6000918252602080832090910154600160a060020a0316835282019290925260400190205460ff1615610bd3576001820191505b600454821415610be65760019250610bee565b600101610b76565b5050919050565b6000805b600354811015610c5e5760008381526001602052604081206003805491929184908110610c2257fe5b6000918252602080832090910154600160a060020a0316835282019290925260400190205460ff1615610c56576001820191505b600101610bf9565b50919050565b6000602081905290815260409020805460018201546003830154600160a060020a0390921692909160029091019060ff1684565b610ca0611693565b6003805480602002602001604051908101604052809291908181526020018280548015610cf657602002820191906000526020600020905b8154600160a060020a03168152600190910190602001808311610cd8575b505050505090505b90565b610d09611693565b610d11611693565b600080600554604051805910610d245750595b9080825280602002602001820160405250925060009150600090505b600554811015610db957858015610d69575060008181526020819052604090206003015460ff16155b80610d8d5750848015610d8d575060008181526020819052604090206003015460ff165b15610db15780838381518110610d9f57fe5b60209081029091010152600191909101905b600101610d40565b878703604051805910610dc95750595b908082528060200260200182016040525093508790505b86811015610e1e57828181518110610df457fe5b906020019060200201518489830381518110610e0c57fe5b60209081029091010152600101610de0565b505050949350505050565b610e31611693565b610e39611693565b6003546000908190604051805910610e4e5750595b9080825280602002602001820160405250925060009150600090505b600354811015610f165760008581526001602052604081206003805491929184908110610e9357fe5b6000918252602080832090910154600160a060020a0316835282019290925260400190205460ff1615610f0e576003805482908110610ece57fe5b600091825260209091200154600160a060020a0316838381518110610eef57fe5b600160a060020a03909216602092830290910190910152600191909101905b600101610e6a565b81604051805910610f245750595b90808252806020026020018201604052509350600090505b81811015610f8557828181518110610f5057fe5b90602001906020020151848281518110610f6657fe5b600160a060020a03909216602092830290910190910152600101610f3c565b505050919050565b60055481565b30600160a060020a031633600160a060020a0316141515610fb357600080fd5b600354816032821180610fc557508181115b80610fce575080155b80610fd7575081155b15610fe157600080fd5b60048390557fa3f1ee9126a074d9326c682f561767f710e927faa811f7a99829d49dc421797a8360405190815260200160405180910390a1505050565b33600160a060020a03811660009081526002602052604090205460ff16151561104657600080fd5b6000828152602081905260409020548290600160a060020a0316151561106b57600080fd5b600083815260016020908152604080832033600160a060020a038116855292529091205484919060ff161561109f57600080fd5b6000858152600160208181526040808420600160a060020a033316808652925292839020805460ff191690921790915586917f4a504a94899432a9846e1aa406dceb1bcfd538bb839071d49d1e5e23f5be30ef905160405180910390a3611105856112e4565b5050505050565b6000611119848484611572565b90506111248161101e565b9392505050565b603281565b60045481565b600030600160a060020a031633600160a060020a031614151561115857600080fd5b600160a060020a038316600090815260026020526040902054839060ff16151561118157600080fd5b600160a060020a038316600090815260026020526040902054839060ff16156111a957600080fd5b600092505b6003548310156112425784600160a060020a03166003848154811015156111d157fe5b600091825260209091200154600160a060020a0316141561123757836003848154811015156111fc57fe5b6000918252602090912001805473ffffffffffffffffffffffffffffffffffffffff1916600160a060020a0392909216919091179055611242565b6001909201916111ae565b600160a060020a03808616600081815260026020526040808220805460ff199081169091559388168252908190208054909316600117909255907f8001553a916ef2f495d26a907cc54d96ed840d7bda71e73194bf5a9df7a76b90905160405180910390a283600160a060020a03167ff39e6e1eb0edcf53c221607b54b00cd28f3196fed0a24994dc308b8f611b682d60405160405180910390a25050505050565b600081815260208190526040812060030154829060ff161561130557600080fd5b61130e83610b71565b1561143b576000838152602081905260409081902060038101805460ff19166001908117909155815490820154919450600160a060020a03169160028501905180828054600181600116156101000203166002900480156113b05780601f10611385576101008083540402835291602001916113b0565b820191906000526020600020905b81548152906001019060200180831161139357829003601f168201915b505091505060006040518083038185876187965a03f1925050501561140157827f33e13ecb54c3076d8e8bb8c2881800a4d972b792045ffae98fdf46df365fed7560405160405180910390a261143b565b827f526441bb6c1aba3c9a4a6ca1d6545da9c2333c8c48343ef398eb858d72b7923660405160405180910390a260038201805460ff191690555b505050565b611448611693565b33600160a060020a03811660009081526002602052604081205490919060ff16151561147357600080fd5b606060405190810160405280602481526020017f1ca2e94a000000000000000000000000000000000000000000000000000000008152602001600081525092508360048111156114bf57fe5b7f010000000000000000000000000000000000000000000000000000000000000002836023815181106114ee57fe5b9060200101907effffffffffffffffffffffffffffffffffffffffffffffffffffffffffffff1916908160001a90535061152a8560008561110c565b915083600481111561153857fe5b7fdfada5694d25a1a3516ca9e5436c3a145c430f4f99157ff4340bee3629df2c878360405190815260200160405180910390a25050505050565b600083600160a060020a038116151561158a57600080fd5b600554915060806040519081016040908152600160a060020a0387168252602080830187905281830186905260006060840181905285815290819052208151815473ffffffffffffffffffffffffffffffffffffffff1916600160a060020a0391909116178155602082015181600101556040820151816002019080516116159291602001906116a5565b506060820151600391909101805460ff191691151591909117905550600580546001019055817fc0ba8fe4b176c1714197d43b9cc6bcf797a4a7461c5fe8d0ef6e184ae7601e5160405160405180910390a2509392505050565b81548183558181151161143b5760008381526020902061143b918101908301611723565b60206040519081016040526000815290565b828054600181600116156101000203166002900490600052602060002090601f016020900481019282601f106116e657805160ff1916838001178555611713565b82800160010185558215611713579182015b828111156117135782518255916020019190600101906116f8565b5061171f929150611723565b5090565b610cfe91905b8082111561171f57600081556001016117295600a165627a7a72305820595d0f72e8baa84cc3fe0a20081a1dbaf3e22f1bbb58fa6c60d5dd3659c8a04d0029",
  "source": "pragma solidity ^0.4.17;\n\n///import \"multisig-wallet/MultiSigWallet.sol\";\nimport \"./MultiSigWallet.sol\";\nimport \"./PresaleToken.sol\";\n\n\n\n/// This extends MultiSigWallet with proxy functions to control PresaleToken\n/// contract.\n\ncontract TokenManager is MultiSigWallet {\n\n    function TokenManager(address[] _owners, uint _required) public \n        MultiSigWallet(_owners, _required)\n    { }\n\n\n    event LogTokenSetPresalePhase(PresaleToken.Phase indexed _phase, uint _txId);\n    event LogTokenWithdrawEther(uint _txId);\n    event LogTokenSetCrowdsaleManager(address indexed _address, uint _txId);\n\n\n    function tokenSetPresalePhase(\n        address _token,\n        PresaleToken.Phase _nextPhase\n    ) public\n        ownerExists(msg.sender)\n    {\n        // bytes4(sha3('setPresalePhase(uint8)'))\n        bytes memory data =\n          hex\"1ca2e94a0000000000000000000000000000000000000000000000000000000000000000\";\n        data[35] = bytes1(uint8(_nextPhase));\n        uint txId = super.submitTransaction(_token, 0, data);\n        LogTokenSetPresalePhase(_nextPhase, txId);\n    }\n\n\n    function tokenWithdrawEther(address _token) public\n        ownerExists(msg.sender)\n    {\n        // bytes4(sha3('withdrawEther()'))\n        bytes memory data = hex\"7362377b\";\n        uint txId = super.submitTransaction(_token, 0, data);\n        LogTokenWithdrawEther(txId);\n    }\n\n\n    function tokenSetCrowdsaleManager(address _token, address _mgr) public\n        ownerExists(msg.sender)\n    {\n        // bytes4(sha3('setCrowdsaleManager(address)'))\n        bytes memory data =\n          hex\"4defd1bf0000000000000000000000000000000000000000000000000000000000000000\";\n\n        // 36 = 4 bytes of signature hash + 32 bytes of array length\n        assembly { mstore(add(data, 36), _mgr) }\n\n        uint txId = super.submitTransaction(_token, 0, data);\n        LogTokenSetCrowdsaleManager(_mgr, txId);\n    }\n}\n",
  "sourcePath": "/home/tavit/Work/dapp/vpt/contracts/TokenManager.sol",
  "schemaVersion": "1.0.0",
  "updatedAt": "2017-11-01T17:24:55.599Z"
}